:02000000112AC3
:080006000000000000000800EA
:10000E00143083120313FC00BE30FD00FD0B0D28CF
:08001E00FC0B0D280000080096
:100026002D3083120313FD00FD0B1728000000007E
:020036000800C0
:1000380083120313B71B2228061323280617371B1E
:100048002728861228288616B71A2C2806122D2843
:100058000616371A3128861132288615311836289F
:10006800061437280610861703208613B7193E286A
:1000780006133F2806173719432886124428861680
:10008800B718482806124928061637184D28861129
:100098004E2886153118522806145328061086173C
:1000A80003208613311C5A2807205B2813200800D8
:0E00B8008312031330088A002F08820008000C
:1000C60083160313981869280000632883123608DC
:0400D6009900080085
:1000DA00710DF80DF90D7408F8027508031C750FF7
:1000EA00F902F00DF10D0F30FC00710DF80DF90D4C
:1000FA007408701C8628F8027508031C750FF9022B
:10010A008B28F80775080318750FF907F00DF10D1C
:10011A00FC0B7A28701897287408F80775080318D2
:08012A00750FF9070000080041
:100132008312031331103608B7001C203114080053
:10014200831203131A08F100981CA9281812181612
:060152007108F000080036
:10015800831603139816903083129800831686141A
:10016800061183128C1EBB281A08F000B528080057
:10017800831203137408003A031DCB287508003A4C
:10018800031DCB28FF30F0007F30F10024298312B3
:100198000313FD01F901F801710870040319003413
:1001A80071087506FA00FA1BFD09FB01F51FE12825
:1001B800F409F509F40A0319F50AF11FE828F0090A
:1001C800F109F00A0319F10A71087504FA00FA1B1B
:1001D800FD286D207B181029FD1F0034F009F10956
:1001E800F00A0319F10AF809F909F80A0319F90AD2
:1001F8000034F51F0C29F11B08297108F900700853
:10020800F800F101F001F028F101F001F00A0034E2
:10021800F109F009FB0AED28F80A0319F90A74082C
:100228007802031DF02875087902031DF028F901EA
:10023800F801F00A0319F10AF11FF0280000FF3451
:020248000800AC
:0E024A000030831203138C1A0130F0000800FC
:1002580083120313B401320884000008B300330882
:10026800003A031941293308B6006320B40A340858
:0C027800320784000008B300332908009E
:100284005C208A110A128000840AAF0A0319B00A9A
:08029400F003031D42290800DC
:10029C006029803083120313B2007329C030B2007E
:1002AC0073299430B2007329D430B2007329803092
:1002BC00B2007329831203133208013A03194F2930
:1002CC003208023A031954293208033A0319572900
:1002DC003208043A03195A295D293303F000320815
:1002EC00F0077008B20031147008B7001C203110F0
:0A02FC003408B7001C20311408007C
:100306009529803083120313B200A829C030B200A9
:10031600A8299430B200A829D430B200A829803088
:10032600B200A829831203133208013A031984295B
:100336003208023A031989293208033A03198C292B
:100346003208043A03198F2992293303F000320840
:10035600F0077008B2007008B7001C203110B50114
:1003660035083407840000080319C1293508340705
:1003760084000008B6009920B50AB3293114080094
:1003860083160313861306108611061286120613A9
:10039600831286130610061386120612861107208C
:1003A60007200720061686158617032086130720C2
:1003B6008617032086130720861703208613072037
:1003C60086118617032086130720861703208613B7
:1003D60006120617861703208613072006138615AE
:1003E6008617032086138611861703208613072097
:1003F6008617032086138615861703208613072083
:100406008611861703208613061786160616861586
:0C0416008617032086130720311408000D
:1004220083120313A001A1015730A2006F30A30071
:100432007230A4006B30A5006930A6006E30A700B0
:100442006730A8002E30A9002E30AA002E30AB0053
:10045200AC0183168601FF3083128600FF308316BB
:100462008600C3210130B2000630B3002230B4004E
:1004720083214730831699001815AC200230FB0007
:100482006830FC000D30FD00FD0B452AFC0B452AAF
:10049200FB0B452A2230B2002C2125217008013A9B
:1004A200031D982AA1207008AD00A1207008AE009B
:1004B2007008B60099202D08B60063200430F200BF
:1004C2002008F0002108F100720803196F2AF10CCC
:1004D200F00CF113711BF117FF3E662A700AB2008D
:1004E2001030F4000030F5002008F0002108F1007F
:1004F200BC207808F0007908F100700AB3002D08DA
:10050200B4004E212008013EF00000300318013EE5
:100512002107F1002030F4000030F500BC207808FB
:10052200F0007908F1007008A0007108A1004E2ABD
:02053200992A04
:02400E006A2125
:00000001FF
